{
  "contractName": "Market",
  "abi": [
    {
      "constant": true,
      "inputs": [
        {
          "name": "_priceID",
          "type": "uint256"
        },
        {
          "name": "_type",
          "type": "bool"
        }
      ],
      "name": "getAccrued",
      "outputs": [
        {
          "name": "accrued",
          "type": "uint256"
        }
      ],
      "payable": false,
      "stateMutability": "view",
      "type": "function"
    },
    {
      "constant": false,
      "inputs": [
        {
          "name": "_price",
          "type": "uint256"
        },
        {
          "name": "_quantity",
          "type": "uint256"
        },
        {
          "name": "_type",
          "type": "bool"
        },
        {
          "name": "_ID",
          "type": "uint256"
        }
      ],
      "name": "launchOffer",
      "outputs": [],
      "payable": false,
      "stateMutability": "nonpayable",
      "type": "function"
    },
    {
      "constant": true,
      "inputs": [
        {
          "name": "_priceID",
          "type": "uint256"
        },
        {
          "name": "_type",
          "type": "bool"
        }
      ],
      "name": "getNumOffers",
      "outputs": [
        {
          "name": "num",
          "type": "uint256"
        }
      ],
      "payable": false,
      "stateMutability": "view",
      "type": "function"
    },
    {
      "constant": true,
      "inputs": [],
      "name": "tickVolume",
      "outputs": [
        {
          "name": "",
          "type": "uint256"
        }
      ],
      "payable": false,
      "stateMutability": "view",
      "type": "function"
    },
    {
      "constant": true,
      "inputs": [],
      "name": "priceScale",
      "outputs": [
        {
          "name": "",
          "type": "uint256"
        }
      ],
      "payable": false,
      "stateMutability": "view",
      "type": "function"
    },
    {
      "constant": true,
      "inputs": [],
      "name": "marketOperator",
      "outputs": [
        {
          "name": "",
          "type": "address"
        }
      ],
      "payable": false,
      "stateMutability": "view",
      "type": "function"
    },
    {
      "constant": true,
      "inputs": [
        {
          "name": "",
          "type": "uint256"
        }
      ],
      "name": "prices",
      "outputs": [
        {
          "name": "value",
          "type": "uint256"
        },
        {
          "name": "buyingAccrued",
          "type": "uint256"
        },
        {
          "name": "sellingAccrued",
          "type": "uint256"
        }
      ],
      "payable": false,
      "stateMutability": "view",
      "type": "function"
    },
    {
      "constant": true,
      "inputs": [],
      "name": "deliveryDate",
      "outputs": [
        {
          "name": "",
          "type": "uint256"
        }
      ],
      "payable": false,
      "stateMutability": "view",
      "type": "function"
    },
    {
      "constant": true,
      "inputs": [],
      "name": "contractType",
      "outputs": [
        {
          "name": "",
          "type": "string"
        }
      ],
      "payable": false,
      "stateMutability": "view",
      "type": "function"
    },
    {
      "constant": true,
      "inputs": [],
      "name": "maxPrice",
      "outputs": [
        {
          "name": "",
          "type": "uint256"
        }
      ],
      "payable": false,
      "stateMutability": "view",
      "type": "function"
    },
    {
      "constant": true,
      "inputs": [],
      "name": "loadShape",
      "outputs": [
        {
          "name": "",
          "type": "string"
        }
      ],
      "payable": false,
      "stateMutability": "view",
      "type": "function"
    },
    {
      "constant": true,
      "inputs": [],
      "name": "contractMaturity",
      "outputs": [
        {
          "name": "",
          "type": "uint256"
        }
      ],
      "payable": false,
      "stateMutability": "view",
      "type": "function"
    },
    {
      "constant": false,
      "inputs": [
        {
          "name": "_ticketID",
          "type": "uint256"
        }
      ],
      "name": "getTicketAddress",
      "outputs": [
        {
          "name": "ticketAddress",
          "type": "address"
        }
      ],
      "payable": false,
      "stateMutability": "nonpayable",
      "type": "function"
    },
    {
      "constant": true,
      "inputs": [],
      "name": "productID",
      "outputs": [
        {
          "name": "",
          "type": "uint256"
        }
      ],
      "payable": false,
      "stateMutability": "view",
      "type": "function"
    },
    {
      "inputs": [
        {
          "name": "_tokenAddress",
          "type": "address"
        },
        {
          "name": "_ID",
          "type": "uint256"
        },
        {
          "name": "_tickVolume",
          "type": "uint256"
        },
        {
          "name": "_contractType",
          "type": "string"
        },
        {
          "name": "_loadShape",
          "type": "string"
        },
        {
          "name": "_contractMaturity",
          "type": "uint256"
        },
        {
          "name": "_daysToDeliveryDate",
          "type": "uint256"
        }
      ],
      "payable": false,
      "stateMutability": "nonpayable",
      "type": "constructor"
    },
    {
      "anonymous": false,
      "inputs": [
        {
          "indexed": false,
          "name": "_ticketAddress",
          "type": "address"
        },
        {
          "indexed": false,
          "name": "_ticketID",
          "type": "uint256"
        }
      ],
      "name": "ticketCreation",
      "type": "event"
    },
    {
      "anonymous": false,
      "inputs": [
        {
          "indexed": false,
          "name": "_price",
          "type": "uint256"
        },
        {
          "indexed": false,
          "name": "_type",
          "type": "bool"
        }
      ],
      "name": "newOffer",
      "type": "event"
    }
  ],
  "bytecode": "0x6060604052606460045560016065036004548115156200001b57fe5b046102045534156200002c57600080fd5b60405162002c9b38038062002c9b8339810160405280805190602001909190805190602001909190805190602001909190805182019190602001805182019190602001805190602001909190805190602001909190505033600760006101000a81548173ffffffffffffffffffffffffffffffffffffffff021916908373ffffffffffffffffffffffffffffffffffffffff1602179055508661020160006101000a81548173ffffffffffffffffffffffffffffffffffffffff021916908373ffffffffffffffffffffffffffffffffffffffff160217905550856000819055508460018190555083600590805190602001906200012c92919062000172565b5082600690805190602001906200014592919062000172565b50816002819055508062015180428115156200015d57fe5b04016003819055505050505050505062000221565b828054600181600116156101000203166002900490600052602060002090601f016020900481019282601f10620001b557805160ff1916838001178555620001e6565b82800160010185558215620001e6579182015b82811115620001e5578251825591602001919060010190620001c8565b5b509050620001f59190620001f9565b5090565b6200021e91905b808211156200021a57600081600090555060010162000200565b5090565b90565b612a6a80620002316000396000f300606060405260043610620000df576000357c0100000000000000000000000000000000000000000000000000000000900463ffffffff168063207d2db814620000e457806329df13c114620001295780638a4fae09146200016c5780639d0369ae14620001b1578063a0fbddaf14620001dd578063b1ae34711462000209578063bc31c1c11462000261578063bca7468d14620002a9578063cb2ef6f714620002d5578063e38d6b5c1462000369578063ee5978e41462000395578063f704e7e21462000429578063f75753561462000455578063f9fb452f14620004bb575b600080fd5b3415620000f057600080fd5b6200011360048080359060200190919080351515906020019091905050620004e7565b6040518082815260200191505060405180910390f35b34156200013557600080fd5b6200016a600480803590602001909190803590602001909190803515159060200190919080359060200190919050506200052e565b005b34156200017857600080fd5b6200019b6004808035906020019091908035151590602001909190505062001097565b6040518082815260200191505060405180910390f35b3415620001bd57600080fd5b620001c7620010e4565b6040518082815260200191505060405180910390f35b3415620001e957600080fd5b620001f3620010ea565b6040518082815260200191505060405180910390f35b34156200021557600080fd5b6200021f620010f1565b604051808273ffffffffffffffffffffffffffffffffffffffff1673ffffffffffffffffffffffffffffffffffffffff16815260200191505060405180910390f35b34156200026d57600080fd5b62000285600480803590602001909190505062001117565b60405180848152602001838152602001828152602001935050505060405180910390f35b3415620002b557600080fd5b620002bf62001147565b6040518082815260200191505060405180910390f35b3415620002e157600080fd5b620002eb6200114d565b6040518080602001828103825283818151815260200191508051906020019080838360005b838110156200032d57808201518184015260208101905062000310565b50505050905090810190601f1680156200035b5780820380516001836020036101000a031916815260200191505b509250505060405180910390f35b34156200037557600080fd5b6200037f620011ef565b6040518082815260200191505060405180910390f35b3415620003a157600080fd5b620003ab620011f5565b6040518080602001828103825283818151815260200191508051906020019080838360005b83811015620003ed578082015181840152602081019050620003d0565b50505050905090810190601f1680156200041b5780820380516001836020036101000a031916815260200191505b509250505060405180910390f35b34156200043557600080fd5b6200043f62001297565b6040518082815260200191505060405180910390f35b34156200046157600080fd5b6200047960048080359060200190919050506200129d565b604051808273ffffffffffffffffffffffffffffffffffffffff1673ffffffffffffffffffffffffffffffffffffffff16815260200191505060405180910390f35b3415620004c757600080fd5b620004d16200133b565b6040518082815260200191505060405180910390f35b6000600883606581101515620004f957fe5b60050201600301549050811562000525576008836065811015156200051a57fe5b600502016004015490505b80905092915050565b60008060008060008060008060006001548c8115156200054a57fe5b061415156200055857600080fd5b6000610204548d8115156200056957fe5b061480156200057a57506004548c11155b15156200058657600080fd5b8a8c0261020160009054906101000a900473ffffffffffffffffffffffffffffffffffffffff1673ffffffffffffffffffffffffffffffffffffffff1663dd62ed3e33306000604051602001526040518363ffffffff167c0100000000000000000000000000000000000000000000000000000000028152600401808373ffffffffffffffffffffffffffffffffffffffff1673ffffffffffffffffffffffffffffffffffffffff1681526020018273ffffffffffffffffffffffffffffffffffffffff1673ffffffffffffffffffffffffffffffffffffffff16815260200192505050602060405180830381600087803b15156200068457600080fd5b6102c65a03f115156200069657600080fd5b505050604051805190501015806200070d575061020360008a815260200190815260200160002060009054906101000a900473ffffffffffffffffffffffffffffffffffffffff1673ffffffffffffffffffffffffffffffffffffffff163373ffffffffffffffffffffffffffffffffffffffff16145b15156200071957600080fd5b60015497505b8a881115156200108957610204548c8115156200073857fe5b04955089801562000763575060006008600188016065811015156200075957fe5b6005020160030154115b806200079457508915801562000793575060006008600188036065811015156200078957fe5b6005020160040154115b5b1562000810578915620007da575b6000600860018801606581101515620007b757fe5b60050201600301541115620007d4578580600101965050620007a2565b6200080f565b5b6000600860018803606581101515620007f057fe5b600502016004015411156200080e57858060019003965050620007db565b5b5b6008866065811015156200082057fe5b6005020160010194506008866065811015156200083957fe5b60050201600201935089156200087c576008866065811015156200085957fe5b6005020160020194506008866065811015156200087257fe5b6005020160010193505b84805480600101828162000891919062001660565b9160005260206000209001600033909190916101000a81548173ffffffffffffffffffffffffffffffffffffffff021916908373ffffffffffffffffffffffffffffffffffffffff160217905550507fcc917eb8bc12222c63915987e9828d0817c6ac02d5384810ce64ae65b7d81cfd6102045487028b60405180838152602001821515151581526020019250505060405180910390a18380549050858054905011151562000fe6576001858054905003925083838154811015156200095357fe5b906000526020600020900160009054906101000a900473ffffffffffffffffffffffffffffffffffffffff1691506102045486026008876065811015156200099757fe5b600502016000018190555061020360008a815260200190815260200160002060009054906101000a900473ffffffffffffffffffffffffffffffffffffffff1673ffffffffffffffffffffffffffffffffffffffff163373ffffffffffffffffffffffffffffffffffffffff16141562000ec3573361020260006101000a81548173ffffffffffffffffffffffffffffffffffffffff021916908373ffffffffffffffffffffffffffffffffffffffff16021790555061020260009054906101000a900473ffffffffffffffffffffffffffffffffffffffff1673ffffffffffffffffffffffffffffffffffffffff16631209b1f66000604051602001526040518163ffffffff167c0100000000000000000000000000000000000000000000000000000000028152600401602060405180830381600087803b151562000add57600080fd5b6102c65a03f1151562000aef57600080fd5b5050506040518051905060088760658110151562000b0957fe5b600502016000015403905061020160009054906101000a900473ffffffffffffffffffffffffffffffffffffffff1673ffffffffffffffffffffffffffffffffffffffff166323b872dd8361020260009054906101000a900473ffffffffffffffffffffffffffffffffffffffff1673ffffffffffffffffffffffffffffffffffffffff1663832880e76000604051602001526040518163ffffffff167c0100000000000000000000000000000000000000000000000000000000028152600401602060405180830381600087803b151562000be457600080fd5b6102c65a03f1151562000bf657600080fd5b50505060405180519050846001540261020160009054906101000a900473ffffffffffffffffffffffffffffffffffffffff1673ffffffffffffffffffffffffffffffffffffffff166370a0823161020260009054906101000a900473ffffffffffffffffffffffffffffffffffffffff166000604051602001526040518263ffffffff167c0100000000000000000000000000000000000000000000000000000000028152600401808273ffffffffffffffffffffffffffffffffffffffff1673ffffffffffffffffffffffffffffffffffffffff168152602001915050602060405180830381600087803b151562000cef57600080fd5b6102c65a03f1151562000d0157600080fd5b50505060405180519050016000604051602001526040518463ffffffff167c0100000000000000000000000000000000000000000000000000000000028152600401808473ffffffffffffffffffffffffffffffffffffffff1673ffffffffffffffffffffffffffffffffffffffff1681526020018373ffffffffffffffffffffffffffffffffffffffff1673ffffffffffffffffffffffffffffffffffffffff1681526020018281526020019350505050602060405180830381600087803b151562000dcd57600080fd5b6102c65a03f1151562000ddf57600080fd5b505050604051805190505061020260009054906101000a900473ffffffffffffffffffffffffffffffffffffffff1673ffffffffffffffffffffffffffffffffffffffff1663a2522b4d836040518263ffffffff167c0100000000000000000000000000000000000000000000000000000000028152600401808273ffffffffffffffffffffffffffffffffffffffff1673ffffffffffffffffffffffffffffffffffffffff168152602001915050600060405180830381600087803b151562000ea857600080fd5b6102c65a03f1151562000eba57600080fd5b50505062000f49565b8173ffffffffffffffffffffffffffffffffffffffff163373ffffffffffffffffffffffffffffffffffffffff16141562000efe5762000f48565b62000f223360088860658110151562000f1357fe5b60050201600001548c62001341565b62000f478260088860658110151562000f3757fe5b60050201600001548c1562001341565b5b5b891562000f9b57600096505b858711151562000f955760088760658110151562000f6f57fe5b600502016003016000815480929190600190039190505550868060010197505062000f55565b62000fe0565b8596505b606587101562000fdf5760088760658110151562000fb957fe5b600502016004016000815480929190600190039190505550868060010197505062000f9f565b5b6200107c565b891562001036578596505b606587101562001030576008876065811015156200100b57fe5b6005020160040160008154809291906001019190505550868060010197505062000ff1565b6200107b565b600096505b85871115156200107a576008876065811015156200105557fe5b600502016003016000815480929190600101919050555086806001019750506200103b565b5b5b600154880197506200071f565b505050505050505050505050565b6000600883606581101515620010a957fe5b600502016001018054905090508115620010db57600883606581101515620010cd57fe5b600502016002018054905090505b80905092915050565b60015481565b6102045481565b600760009054906101000a900473ffffffffffffffffffffffffffffffffffffffff1681565b6008816065811015156200112757fe5b600502016000915090508060000154908060030154908060040154905083565b60035481565b60058054600181600116156101000203166002900480601f016020809104026020016040519081016040528092919081815260200182805460018160011615610100020316600290048015620011e75780601f10620011bb57610100808354040283529160200191620011e7565b820191906000526020600020905b815481529060010190602001808311620011c957829003601f168201915b505050505081565b60045481565b60068054600181600116156101000203166002900480601f0160208091040260200160405190810160405280929190818152602001828054600181600116156101000203166002900480156200128f5780601f1062001263576101008083540402835291602001916200128f565b820191906000526020600020905b8154815290600101906020018083116200127157829003601f168201915b505050505081565b60025481565b6000600760009054906101000a900473ffffffffffffffffffffffffffffffffffffffff1673ffffffffffffffffffffffffffffffffffffffff163373ffffffffffffffffffffffffffffffffffffffff16141515620012fc57600080fd5b610203600083815260200190815260200160002060009054906101000a900473ffffffffffffffffffffffffffffffffffffffff169050809050919050565b60005481565b6000610206543061020160009054906101000a900473ffffffffffffffffffffffffffffffffffffffff16868686620013796200168f565b808781526020018673ffffffffffffffffffffffffffffffffffffffff1673ffffffffffffffffffffffffffffffffffffffff1681526020018573ffffffffffffffffffffffffffffffffffffffff1673ffffffffffffffffffffffffffffffffffffffff1681526020018473ffffffffffffffffffffffffffffffffffffffff1673ffffffffffffffffffffffffffffffffffffffff168152602001838152602001821515151581526020019650505050505050604051809103906000f08015156200144557600080fd5b905080610203600061020654815260200190815260200160002060006101000a81548173ffffffffffffffffffffffffffffffffffffffff021916908373ffffffffffffffffffffffffffffffffffffffff1602179055507f6366be2a34bf93569ef23eef3b0ac68f897d86706d78103ff58685bd0a3cef5b8161020654604051808373ffffffffffffffffffffffffffffffffffffffff1673ffffffffffffffffffffffffffffffffffffffff1681526020018281526020019250505060405180910390a16005838115156200151857fe5b046102058190555061020160009054906101000a900473ffffffffffffffffffffffffffffffffffffffff1673ffffffffffffffffffffffffffffffffffffffff166323b872dd858360015461020554026000604051602001526040518463ffffffff167c0100000000000000000000000000000000000000000000000000000000028152600401808473ffffffffffffffffffffffffffffffffffffffff1673ffffffffffffffffffffffffffffffffffffffff1681526020018373ffffffffffffffffffffffffffffffffffffffff1673ffffffffffffffffffffffffffffffffffffffff1681526020018281526020019350505050602060405180830381600087803b15156200162a57600080fd5b6102c65a03f115156200163c57600080fd5b50505060405180519050506102066000815480929190600101919050555050505050565b8154818355818115116200168a57818360005260206000209182019101620016899190620016a0565b5b505050565b60405161137680620016c983390190565b620016c591905b80821115620016c1576000816000905550600101620016a7565b5090565b90560060606040526001600b556000600c55341561001957600080fd5b60405160c08061137683398101604052808051906020019091908051906020019091908051906020019091908051906020019091908051906020019091908051906020019091905050336000806101000a81548173ffffffffffffffffffffffffffffffffffffffff021916908373ffffffffffffffffffffffffffffffffffffffff1602179055508473ffffffffffffffffffffffffffffffffffffffff163373ffffffffffffffffffffffffffffffffffffffff161415156100dc57600080fd5b8560048190555083600260006101000a81548173ffffffffffffffffffffffffffffffffffffffff021916908373ffffffffffffffffffffffffffffffffffffffff16021790555084600360006101000a81548173ffffffffffffffffffffffffffffffffffffffff021916908373ffffffffffffffffffffffffffffffffffffffff16021790555082600160006101000a81548173ffffffffffffffffffffffffffffffffffffffff021916908373ffffffffffffffffffffffffffffffffffffffff160217905550600360009054906101000a900473ffffffffffffffffffffffffffffffffffffffff1673ffffffffffffffffffffffffffffffffffffffff1663bca7468d6000604051602001526040518163ffffffff167c0100000000000000000000000000000000000000000000000000000000028152600401602060405180830381600087803b151561023457600080fd5b6102c65a03f1151561024557600080fd5b50505060405180519050600881905550600360009054906101000a900473ffffffffffffffffffffffffffffffffffffffff1673ffffffffffffffffffffffffffffffffffffffff1663f704e7e26000604051602001526040518163ffffffff167c0100000000000000000000000000000000000000000000000000000000028152600401602060405180830381600087803b15156102e357600080fd5b6102c65a03f115156102f457600080fd5b505050604051805190506008540160098190555081600581905550600554600781905550600260009054906101000a900473ffffffffffffffffffffffffffffffffffffffff1673ffffffffffffffffffffffffffffffffffffffff166370a08231306000604051602001526040518263ffffffff167c0100000000000000000000000000000000000000000000000000000000028152600401808273ffffffffffffffffffffffffffffffffffffffff1673ffffffffffffffffffffffffffffffffffffffff168152602001915050602060405180830381600087803b15156103dd57600080fd5b6102c65a03f115156103ee57600080fd5b50505060405180519050600681905550600360009054906101000a900473ffffffffffffffffffffffffffffffffffffffff1673ffffffffffffffffffffffffffffffffffffffff16639d0369ae6000604051602001526040518163ffffffff167c0100000000000000000000000000000000000000000000000000000000028152600401602060405180830381600087803b151561048c57600080fd5b6102c65a03f1151561049d57600080fd5b50505060405180519050600660008282548115156104b757fe5b049250508190555080600a60016101000a81548160ff021916908315150217905550505050505050610e88806104ee6000396000f3006060604052600436106100a4576000357c0100000000000000000000000000000000000000000000000000000000900463ffffffff1680630759f90d146100a95780630c737add146100cc5780631209b1f6146100f95780631a695230146101225780632f54bf6e1461015b5780634f8632ba146101ac578063832880e7146102015780638da5cb5b14610256578063a2522b4d146102ab578063fc3b3bd9146102e4575b600080fd5b34156100b457600080fd5b6100ca60048080359060200190919050506102f9565b005b34156100d757600080fd5b6100df6103e2565b604051808215151515815260200191505060405180910390f35b341561010457600080fd5b61010c6103f5565b6040518082815260200191505060405180910390f35b341561012d57600080fd5b610159600480803573ffffffffffffffffffffffffffffffffffffffff169060200190919050506103fb565b005b341561016657600080fd5b610192600480803573ffffffffffffffffffffffffffffffffffffffff16906020019091905050610488565b604051808215151515815260200191505060405180910390f35b34156101b757600080fd5b6101bf6104e1565b604051808273ffffffffffffffffffffffffffffffffffffffff1673ffffffffffffffffffffffffffffffffffffffff16815260200191505060405180910390f35b341561020c57600080fd5b610214610507565b604051808273ffffffffffffffffffffffffffffffffffffffff1673ffffffffffffffffffffffffffffffffffffffff16815260200191505060405180910390f35b341561026157600080fd5b610269610523565b604051808273ffffffffffffffffffffffffffffffffffffffff1673ffffffffffffffffffffffffffffffffffffffff16815260200191505060405180910390f35b34156102b657600080fd5b6102e2600480803573ffffffffffffffffffffffffffffffffffffffff16906020019091905050610548565b005b34156102ef57600080fd5b6102f76105f8565b005b600a60019054906101000a900460ff161561031f576000600b819055506001600c819055505b600854620151804281151561033057fe5b041115610353576001600a60006101000a81548160ff0219169083151502179055505b600a60009054906101000a900460ff1615610372576005546007819055505b806007541415156103a0576007548103600b54028160075403600c5402016006600082825401925050819055505b600a60009054906101000a900460ff1615156103be57806007819055505b60095462015180428115156103cf57fe5b0414156103df576103de610a2a565b5b50565b600a60019054906101000a900460ff1681565b60055481565b61040433610488565b151561040f57600080fd5b3073ffffffffffffffffffffffffffffffffffffffff168173ffffffffffffffffffffffffffffffffffffffff1614151561048557806000806101000a81548173ffffffffffffffffffffffffffffffffffffffff021916908373ffffffffffffffffffffffffffffffffffffffff1602179055505b50565b60008060009054906101000a900473ffffffffffffffffffffffffffffffffffffffff1673ffffffffffffffffffffffffffffffffffffffff168273ffffffffffffffffffffffffffffffffffffffff16149050919050565b600160009054906101000a900473ffffffffffffffffffffffffffffffffffffffff1681565b600061051233610488565b151561051d57600080fd5b80905090565b6000809054906101000a900473ffffffffffffffffffffffffffffffffffffffff1681565b61055133610488565b151561055c57600080fd5b600160009054906101000a900473ffffffffffffffffffffffffffffffffffffffff1673ffffffffffffffffffffffffffffffffffffffff168173ffffffffffffffffffffffffffffffffffffffff161415156105f55780600160006101000a81548173ffffffffffffffffffffffffffffffffffffffff021916908373ffffffffffffffffffffffffffffffffffffffff1602179055505b50565b600160009054906101000a900473ffffffffffffffffffffffffffffffffffffffff1673ffffffffffffffffffffffffffffffffffffffff163373ffffffffffffffffffffffffffffffffffffffff1614151561065457600080fd5b600a60009054906101000a900460ff1615151561067057600080fd5b600a60019054906101000a900460ff16156108ac57600360009054906101000a900473ffffffffffffffffffffffffffffffffffffffff1673ffffffffffffffffffffffffffffffffffffffff166329df13c1600360009054906101000a900473ffffffffffffffffffffffffffffffffffffffff1673ffffffffffffffffffffffffffffffffffffffff1663e38d6b5c6000604051602001526040518163ffffffff167c0100000000000000000000000000000000000000000000000000000000028152600401602060405180830381600087803b151561075157600080fd5b6102c65a03f1151561076257600080fd5b50505060405180519050600360009054906101000a900473ffffffffffffffffffffffffffffffffffffffff1673ffffffffffffffffffffffffffffffffffffffff16639d0369ae6000604051602001526040518163ffffffff167c0100000000000000000000000000000000000000000000000000000000028152600401602060405180830381600087803b15156107fa57600080fd5b6102c65a03f1151561080b57600080fd5b50505060405180519050600a60019054906101000a900460ff16156004546040518563ffffffff167c01000000000000000000000000000000000000000000000000000000000281526004018085815260200184815260200183151515158152602001828152602001945050505050600060405180830381600087803b151561089357600080fd5b6102c65a03f115156108a457600080fd5b505050610a28565b600360009054906101000a900473ffffffffffffffffffffffffffffffffffffffff1673ffffffffffffffffffffffffffffffffffffffff166329df13c16000600360009054906101000a900473ffffffffffffffffffffffffffffffffffffffff1673ffffffffffffffffffffffffffffffffffffffff16639d0369ae6000604051602001526040518163ffffffff167c0100000000000000000000000000000000000000000000000000000000028152600401602060405180830381600087803b151561097a57600080fd5b6102c65a03f1151561098b57600080fd5b50505060405180519050600a60019054906101000a900460ff16156004546040518563ffffffff167c01000000000000000000000000000000000000000000000000000000000281526004018085815260200184815260200183151515158152602001828152602001945050505050600060405180830381600087803b1515610a1357600080fd5b6102c65a03f11515610a2457600080fd5b5050505b565b600260009054906101000a900473ffffffffffffffffffffffffffffffffffffffff1673ffffffffffffffffffffffffffffffffffffffff1663a9059cbb600360009054906101000a900473ffffffffffffffffffffffffffffffffffffffff16600260009054906101000a900473ffffffffffffffffffffffffffffffffffffffff1673ffffffffffffffffffffffffffffffffffffffff166370a08231306000604051602001526040518263ffffffff167c0100000000000000000000000000000000000000000000000000000000028152600401808273ffffffffffffffffffffffffffffffffffffffff1673ffffffffffffffffffffffffffffffffffffffff168152602001915050602060405180830381600087803b1515610b5057600080fd5b6102c65a03f11515610b6157600080fd5b505050604051805190506000604051602001526040518363ffffffff167c0100000000000000000000000000000000000000000000000000000000028152600401808373ffffffffffffffffffffffffffffffffffffffff1673ffffffffffffffffffffffffffffffffffffffff16815260200182815260200192505050602060405180830381600087803b1515610bf857600080fd5b6102c65a03f11515610c0957600080fd5b5050506040518051905050600260009054906101000a900473ffffffffffffffffffffffffffffffffffffffff1673ffffffffffffffffffffffffffffffffffffffff166323b872dd600360009054906101000a900473ffffffffffffffffffffffffffffffffffffffff16600160009054906101000a900473ffffffffffffffffffffffffffffffffffffffff16600360009054906101000a900473ffffffffffffffffffffffffffffffffffffffff1673ffffffffffffffffffffffffffffffffffffffff16639d0369ae6000604051602001526040518163ffffffff167c0100000000000000000000000000000000000000000000000000000000028152600401602060405180830381600087803b1515610d2657600080fd5b6102c65a03f11515610d3757600080fd5b50505060405180519050600654026000604051602001526040518463ffffffff167c0100000000000000000000000000000000000000000000000000000000028152600401808473ffffffffffffffffffffffffffffffffffffffff1673ffffffffffffffffffffffffffffffffffffffff1681526020018373ffffffffffffffffffffffffffffffffffffffff1673ffffffffffffffffffffffffffffffffffffffff1681526020018281526020019350505050602060405180830381600087803b1515610e0557600080fd5b6102c65a03f11515610e1657600080fd5b5050506040518051905050600360009054906101000a900473ffffffffffffffffffffffffffffffffffffffff1673ffffffffffffffffffffffffffffffffffffffff16ff00a165627a7a723058206f4e08fa67b61bdc90efc946917822ad6700dddd7cab2b65c2394e65f6a4abff0029a165627a7a723058204e2ed64cf906c4381db9f682567461f2e6f3730352005e604b6084fc85d28b840029",
  "source": "pragma solidity ^0.4.8;\n\nimport \"./MyToken.sol\";\nimport \"./ticket.sol\";\n\ncontract Market {\n\n    // Data struct\n    struct price {\n        uint value;                 // Tokens per MWh\n        address [] buyingOffers;\n        address [] sellingOffers;\n        // Accrued values for correcting the price\n        uint buyingAccrued;         // Accumulated value of buying offers from the highest buying offer price\n        uint sellingAccrued;        // Accumulated value of selling offers from the lowest selling offer price\n    }\n\n    // Variables\n    // Public variables (accessible from Ticket)\n    uint public productID;          // Identificator of the product\n    uint public tickVolume;         // Quantity (MWh) traded per offer\n    uint public contractMaturity;   // i.e. D, WE, Wk, M, Q or Y; duration (days)\n    uint public deliveryDate;       // First day of the delivery period\n    uint public maxPrice = 100;     // Maximum price available\n    string public contractType;     // i.e. future, forward, option, or swap\n    string public loadShape;        // i.e. base or peak\n    address public marketOperator;\n    price [101] public prices;\n    // External contracts\n    MyToken token;\n    Ticket t;\n    // Mappings\n    mapping (uint => address) ticketList;\n    // Additional variables\n    uint public priceScale = maxPrice / (prices.length - 1);\n    uint margin;\n    uint ticketID;\n\n    // Events\n    event ticketCreation (address _ticketAddress, uint _ticketID);\n    event newOffer (uint _price, bool _type);\n\n    // Constructor\n    function Market (\n        address _tokenAddress,\n        uint _ID,\n        uint _tickVolume,\n        string _contractType,\n        string _loadShape,\n        uint _contractMaturity,\n        uint _daysToDeliveryDate\n        ) public {\n        marketOperator = msg.sender;\n        token = MyToken(_tokenAddress);\n        productID = _ID;\n        tickVolume = _tickVolume;\n        contractType = _contractType;\n        loadShape = _loadShape;\n        contractMaturity = _contractMaturity;\n        deliveryDate = (now / 1 days) + _daysToDeliveryDate;\n    }\n\n    // Functions\n    function launchOffer (uint _price, uint _quantity, bool _type, uint _ID) public {\n        // Check quantity and price are valid\n        require (_quantity % tickVolume == 0);\n        require (_price % priceScale == 0 && _price <= maxPrice);\n        // Check the sender has allowed this contract to spend its funds, unless the sender is a ticket\n        require (token.allowance(msg.sender, this) >= (_price * _quantity) || msg.sender == ticketList[_ID]);\n\n        for (uint j = tickVolume; j <= _quantity; j += tickVolume) {\n            uint i;\n            uint priceID = _price / priceScale;\n\n            // Correct the price if necessary\n            if ((_type && prices[priceID + 1].buyingAccrued > 0) || (!_type && prices[priceID - 1].sellingAccrued > 0)){\n                if (_type) {\n                    for (; prices[priceID + 1].buyingAccrued > 0; priceID ++){}\n                } else {\n                    for (; prices[priceID - 1].sellingAccrued > 0; priceID --){}\n                }\n            }\n\n            var auxA = prices[priceID].buyingOffers;  // Assigns a pointer to the corresponding offers vector (default)\n            var auxB = prices[priceID].sellingOffers;\n            if (_type) {                              // Change the pointers if _type = selling\n                auxA = prices[priceID].sellingOffers;\n                auxB = prices[priceID].buyingOffers;\n            }\n\n            // Add a new offer\n            auxA.push(msg.sender);\n            newOffer(priceID * priceScale, _type);\n            if (auxA.length <= auxB.length) {         // Two offers have matched\n                uint pos = auxA.length - 1;\n                address counterpart = auxB[pos];\n                prices[priceID].value = priceID * priceScale;\n                if (msg.sender == ticketList[_ID]) {\n                    // If the sender is a ticket, no new ticket has to be created; the ticket user is updated instead\n                    // New user must pay the difference between the current trading price and the price registered in the ticket\n                    t = Ticket(msg.sender);\n                    uint priceDiff = prices[priceID].value - t.ticketPrice();\n                    token.transferFrom(counterpart, t.getUser(), token.balanceOf(t) + tickVolume * priceDiff);\n                    t.transferUser(counterpart);\n                } else if (msg.sender == counterpart) {\n                    // If the address of the sender is the same as the address of the counterpart, then the offer is cancelled\n                    // Nothing has to be done in this case\n                } else {\n                    // Create two tickets, one for each offer\n                    createTicket(msg.sender, prices[priceID].value, _type);\n                    createTicket(counterpart, prices[priceID].value, !_type);\n                }\n                // Update accrued curves\n                if (_type) {\n                    for (i = 0; i <= priceID; i ++)\n                    prices[i].buyingAccrued --;\n                } else {\n                    for (i = priceID; i < 101; i ++)\n                    prices[i].sellingAccrued --;\n                }\n            } else {\n                if (_type) {\n                    for (i = priceID; i < 101; i ++)\n                    prices[i].sellingAccrued ++;\n                } else {\n                    for (i = 0; i <= priceID; i ++)\n                    prices[i].buyingAccrued ++;\n                }\n            }\n        }\n    }\n\n    function createTicket (address _agent, uint _price, bool _type) internal {\n        address newTicket = new Ticket(ticketID, this, token, _agent, _price, _type); // Deploy the contract\n        ticketList[ticketID] = newTicket;     // Update the list\n        ticketCreation(newTicket, ticketID);  // Launch the event\n        margin = _price / 5;\n        token.transferFrom(_agent, newTicket, margin * tickVolume);\n        ticketID ++;\n    }\n\n    function getTicketAddress (uint _ticketID) public returns (address ticketAddress) {\n        require (msg.sender == marketOperator);\n        ticketAddress = ticketList[_ticketID];\n        return ticketAddress;\n    }\n\n    function getAccrued (uint _priceID, bool _type) public constant returns (uint accrued) {\n        accrued = prices[_priceID].buyingAccrued;\n        if (_type)\n        accrued = prices[_priceID].sellingAccrued;\n        return accrued;\n    }\n\n    function getNumOffers (uint _priceID, bool _type) public constant returns (uint num) {\n       num = prices[_priceID].buyingOffers.length;\n       if (_type)\n       num = prices[_priceID].sellingOffers.length;\n       return num;\n    }\n\n}\n",
  "sourcePath": "/home/inigo/projects/Blockchain/contracts/market.sol",
  "compiler": {
    "name": "solc",
    "version": "0.4.18+commit.9cf6e910.Emscripten.clang"
  },
  "schemaVersion": "1.0.1",
  "updatedAt": "2018-03-05T09:32:27.758Z"
}