{
  "contractName": "MultiOwned",
  "abi": [
    {
      "constant": false,
      "inputs": [
        {
          "name": "who",
          "type": "address"
        }
      ],
      "name": "addMaster",
      "outputs": [],
      "payable": false,
      "stateMutability": "nonpayable",
      "type": "function"
    },
    {
      "constant": true,
      "inputs": [],
      "name": "numMasters",
      "outputs": [
        {
          "name": "",
          "type": "uint256"
        }
      ],
      "payable": false,
      "stateMutability": "view",
      "type": "function"
    },
    {
      "constant": true,
      "inputs": [],
      "name": "numUsers",
      "outputs": [
        {
          "name": "",
          "type": "uint256"
        }
      ],
      "payable": false,
      "stateMutability": "view",
      "type": "function"
    },
    {
      "constant": false,
      "inputs": [
        {
          "name": "wallet",
          "type": "address"
        }
      ],
      "name": "addUser",
      "outputs": [],
      "payable": false,
      "stateMutability": "nonpayable",
      "type": "function"
    },
    {
      "constant": false,
      "inputs": [
        {
          "name": "wallet",
          "type": "address"
        }
      ],
      "name": "removeUser",
      "outputs": [],
      "payable": false,
      "stateMutability": "nonpayable",
      "type": "function"
    },
    {
      "constant": true,
      "inputs": [
        {
          "name": "",
          "type": "address"
        }
      ],
      "name": "master",
      "outputs": [
        {
          "name": "",
          "type": "bool"
        }
      ],
      "payable": false,
      "stateMutability": "view",
      "type": "function"
    },
    {
      "constant": true,
      "inputs": [
        {
          "name": "",
          "type": "address"
        }
      ],
      "name": "users",
      "outputs": [
        {
          "name": "",
          "type": "bool"
        }
      ],
      "payable": false,
      "stateMutability": "view",
      "type": "function"
    },
    {
      "constant": false,
      "inputs": [
        {
          "name": "who",
          "type": "address"
        }
      ],
      "name": "removeMaster",
      "outputs": [],
      "payable": false,
      "stateMutability": "nonpayable",
      "type": "function"
    },
    {
      "inputs": [],
      "payable": false,
      "stateMutability": "nonpayable",
      "type": "constructor"
    },
    {
      "anonymous": false,
      "inputs": [
        {
          "indexed": false,
          "name": "who",
          "type": "address"
        },
        {
          "indexed": false,
          "name": "by",
          "type": "address"
        }
      ],
      "name": "NewUser",
      "type": "event"
    },
    {
      "anonymous": false,
      "inputs": [
        {
          "indexed": false,
          "name": "who",
          "type": "address"
        },
        {
          "indexed": false,
          "name": "by",
          "type": "address"
        }
      ],
      "name": "NewMaster",
      "type": "event"
    }
  ],
  "bytecode": "0x6060604052341561000f57600080fd5b60016000803373ffffffffffffffffffffffffffffffffffffffff1673ffffffffffffffffffffffffffffffffffffffff16815260200190815260200160002060006101000a81548160ff021916908315150217905550610721806100756000396000f30060606040526004361061008e576000357c0100000000000000000000000000000000000000000000000000000000900463ffffffff1680631097d54a1461009357806311013f4e146100cc57806319a50f49146100f5578063421b2d8b1461011e57806398575188146101575780639ed153c014610190578063a87430ba146101e1578063e2a2f0a314610232575b600080fd5b341561009e57600080fd5b6100ca600480803573ffffffffffffffffffffffffffffffffffffffff1690602001909190505061026b565b005b34156100d757600080fd5b6100df6103c5565b6040518082815260200191505060405180910390f35b341561010057600080fd5b6101086103cb565b6040518082815260200191505060405180910390f35b341561012957600080fd5b610155600480803573ffffffffffffffffffffffffffffffffffffffff169060200190919050506103d1565b005b341561016257600080fd5b61018e600480803573ffffffffffffffffffffffffffffffffffffffff1690602001909190505061052c565b005b341561019b57600080fd5b6101c7600480803573ffffffffffffffffffffffffffffffffffffffff169060200190919050506105f1565b604051808215151515815260200191505060405180910390f35b34156101ec57600080fd5b610218600480803573ffffffffffffffffffffffffffffffffffffffff16906020019091905050610611565b604051808215151515815260200191505060405180910390f35b341561023d57600080fd5b610269600480803573ffffffffffffffffffffffffffffffffffffffff16906020019091905050610631565b005b6000803373ffffffffffffffffffffffffffffffffffffffff1673ffffffffffffffffffffffffffffffffffffffff16815260200190815260200160002060009054906101000a900460ff1615156102c257600080fd5b60016000808373ffffffffffffffffffffffffffffffffffffffff1673ffffffffffffffffffffffffffffffffffffffff16815260200190815260200160002060006101000a81548160ff0219169083151502179055506001600081548092919060010191905055507f86252e3757e33841641a80f45eb868576e3205beeb90ea3a70114de9a7d313b08133604051808373ffffffffffffffffffffffffffffffffffffffff1673ffffffffffffffffffffffffffffffffffffffff1681526020018273ffffffffffffffffffffffffffffffffffffffff1673ffffffffffffffffffffffffffffffffffffffff1681526020019250505060405180910390a150565b60015481565b60035481565b6000803373ffffffffffffffffffffffffffffffffffffffff1673ffffffffffffffffffffffffffffffffffffffff16815260200190815260200160002060009054906101000a900460ff16151561042857600080fd5b6001600260008373ffffffffffffffffffffffffffffffffffffffff1673ffffffffffffffffffffffffffffffffffffffff16815260200190815260200160002060006101000a81548160ff0219169083151502179055506003600081548092919060010191905055507fff3eabe1067b08ba8af3e8d3191eebeae9b35de7a7aeee40f2ad1ceb6a8876078133604051808373ffffffffffffffffffffffffffffffffffffffff1673ffffffffffffffffffffffffffffffffffffffff1681526020018273ffffffffffffffffffffffffffffffffffffffff1673ffffffffffffffffffffffffffffffffffffffff1681526020019250505060405180910390a150565b6000803373ffffffffffffffffffffffffffffffffffffffff1673ffffffffffffffffffffffffffffffffffffffff16815260200190815260200160002060009054906101000a900460ff16151561058357600080fd5b6000600260008373ffffffffffffffffffffffffffffffffffffffff1673ffffffffffffffffffffffffffffffffffffffff16815260200190815260200160002060006101000a81548160ff0219169083151502179055506003600081548092919060019003919050555050565b60006020528060005260406000206000915054906101000a900460ff1681565b60026020528060005260406000206000915054906101000a900460ff1681565b6000803373ffffffffffffffffffffffffffffffffffffffff1673ffffffffffffffffffffffffffffffffffffffff16815260200190815260200160002060009054906101000a900460ff16151561068857600080fd5b60008060008373ffffffffffffffffffffffffffffffffffffffff1673ffffffffffffffffffffffffffffffffffffffff16815260200190815260200160002060006101000a81548160ff02191690831515021790555060016000815480929190600190039190505550505600a165627a7a723058206dd81ef70e6067f3851030ca98ab75a124d0c7721fdef27bece774ef21f092550029",
  "source": "pragma solidity ^0.4.8;\n\ncontract MultiOwned {\n\n  mapping (address => bool) public master;\n  uint public numMasters;\n\n  mapping (address => bool) public users;\n  uint public numUsers;\n\n  //Events\n  event NewUser (address who, address by);\n  event NewMaster(address who, address by);\n\n  //modifier\n  modifier onlyMaster() {\n    if(!master[msg.sender])\n      revert();\n    _;\n  }\n  modifier onlyUsers() {\n    if(!users[msg.sender])\n      revert();\n    _;\n  }\n\n  //functions\n  function MultiOwned (){\n    master[msg.sender] = true;\n  }\n\n  function addMaster(address who) onlyMaster {\n    master[who] = true;\n    numMasters++;\n    NewMaster(who, msg.sender);\n  }\n\n  function removeMaster(address who) onlyMaster {\n    master[who] = false;\n    numMasters--;\n  }\n\n  function addUser(address wallet) onlyMaster {\n    users[wallet] = true;\n    numUsers++;\n    NewUser(wallet, msg.sender);\n  }\n\n  function removeUser(address wallet) onlyMaster {\n    users[wallet] = false;\n    numUsers--;\n  }\n\n}\n",
  "sourcePath": "/home/inigo/projects/Blockchain/contracts/lib/MultiOwned.sol",
  "compiler": {
    "name": "solc",
    "version": "0.4.18+commit.9cf6e910.Emscripten.clang"
  },
  "schemaVersion": "1.0.1",
  "updatedAt": "2018-03-05T09:32:27.757Z"
}