{
  "contractName": "Ticket",
  "abi": [
    {
      "constant": false,
      "inputs": [
        {
          "name": "_energyPrice",
          "type": "uint256"
        }
      ],
      "name": "updateTicketBalance",
      "outputs": [],
      "payable": false,
      "stateMutability": "nonpayable",
      "type": "function"
    },
    {
      "constant": true,
      "inputs": [],
      "name": "ticketType",
      "outputs": [
        {
          "name": "",
          "type": "bool"
        }
      ],
      "payable": false,
      "stateMutability": "view",
      "type": "function"
    },
    {
      "constant": true,
      "inputs": [],
      "name": "ticketPrice",
      "outputs": [
        {
          "name": "",
          "type": "uint256"
        }
      ],
      "payable": false,
      "stateMutability": "view",
      "type": "function"
    },
    {
      "constant": false,
      "inputs": [
        {
          "name": "newOwner",
          "type": "address"
        }
      ],
      "name": "transfer",
      "outputs": [],
      "payable": false,
      "stateMutability": "nonpayable",
      "type": "function"
    },
    {
      "constant": false,
      "inputs": [
        {
          "name": "addr",
          "type": "address"
        }
      ],
      "name": "isOwner",
      "outputs": [
        {
          "name": "",
          "type": "bool"
        }
      ],
      "payable": false,
      "stateMutability": "nonpayable",
      "type": "function"
    },
    {
      "constant": true,
      "inputs": [],
      "name": "user",
      "outputs": [
        {
          "name": "",
          "type": "address"
        }
      ],
      "payable": false,
      "stateMutability": "view",
      "type": "function"
    },
    {
      "constant": false,
      "inputs": [],
      "name": "getUser",
      "outputs": [
        {
          "name": "user",
          "type": "address"
        }
      ],
      "payable": false,
      "stateMutability": "nonpayable",
      "type": "function"
    },
    {
      "constant": true,
      "inputs": [],
      "name": "owner",
      "outputs": [
        {
          "name": "",
          "type": "address"
        }
      ],
      "payable": false,
      "stateMutability": "view",
      "type": "function"
    },
    {
      "constant": false,
      "inputs": [
        {
          "name": "newUser",
          "type": "address"
        }
      ],
      "name": "transferUser",
      "outputs": [],
      "payable": false,
      "stateMutability": "nonpayable",
      "type": "function"
    },
    {
      "constant": false,
      "inputs": [],
      "name": "sellTicket",
      "outputs": [],
      "payable": false,
      "stateMutability": "nonpayable",
      "type": "function"
    },
    {
      "inputs": [
        {
          "name": "_ticketID",
          "type": "uint256"
        },
        {
          "name": "_marketAddress",
          "type": "address"
        },
        {
          "name": "_tokenAddress",
          "type": "address"
        },
        {
          "name": "_agentAddress",
          "type": "address"
        },
        {
          "name": "_price",
          "type": "uint256"
        },
        {
          "name": "_type",
          "type": "bool"
        }
      ],
      "payable": false,
      "stateMutability": "nonpayable",
      "type": "constructor"
    }
  ],
  "bytecode": "0x60606040526001600b556000600c55341561001957600080fd5b60405160c08061137683398101604052808051906020019091908051906020019091908051906020019091908051906020019091908051906020019091908051906020019091905050336000806101000a81548173ffffffffffffffffffffffffffffffffffffffff021916908373ffffffffffffffffffffffffffffffffffffffff1602179055508473ffffffffffffffffffffffffffffffffffffffff163373ffffffffffffffffffffffffffffffffffffffff161415156100dc57600080fd5b8560048190555083600260006101000a81548173ffffffffffffffffffffffffffffffffffffffff021916908373ffffffffffffffffffffffffffffffffffffffff16021790555084600360006101000a81548173ffffffffffffffffffffffffffffffffffffffff021916908373ffffffffffffffffffffffffffffffffffffffff16021790555082600160006101000a81548173ffffffffffffffffffffffffffffffffffffffff021916908373ffffffffffffffffffffffffffffffffffffffff160217905550600360009054906101000a900473ffffffffffffffffffffffffffffffffffffffff1673ffffffffffffffffffffffffffffffffffffffff1663bca7468d6000604051602001526040518163ffffffff167c0100000000000000000000000000000000000000000000000000000000028152600401602060405180830381600087803b151561023457600080fd5b6102c65a03f1151561024557600080fd5b50505060405180519050600881905550600360009054906101000a900473ffffffffffffffffffffffffffffffffffffffff1673ffffffffffffffffffffffffffffffffffffffff1663f704e7e26000604051602001526040518163ffffffff167c0100000000000000000000000000000000000000000000000000000000028152600401602060405180830381600087803b15156102e357600080fd5b6102c65a03f115156102f457600080fd5b505050604051805190506008540160098190555081600581905550600554600781905550600260009054906101000a900473ffffffffffffffffffffffffffffffffffffffff1673ffffffffffffffffffffffffffffffffffffffff166370a08231306000604051602001526040518263ffffffff167c0100000000000000000000000000000000000000000000000000000000028152600401808273ffffffffffffffffffffffffffffffffffffffff1673ffffffffffffffffffffffffffffffffffffffff168152602001915050602060405180830381600087803b15156103dd57600080fd5b6102c65a03f115156103ee57600080fd5b50505060405180519050600681905550600360009054906101000a900473ffffffffffffffffffffffffffffffffffffffff1673ffffffffffffffffffffffffffffffffffffffff16639d0369ae6000604051602001526040518163ffffffff167c0100000000000000000000000000000000000000000000000000000000028152600401602060405180830381600087803b151561048c57600080fd5b6102c65a03f1151561049d57600080fd5b50505060405180519050600660008282548115156104b757fe5b049250508190555080600a60016101000a81548160ff021916908315150217905550505050505050610e88806104ee6000396000f3006060604052600436106100a4576000357c0100000000000000000000000000000000000000000000000000000000900463ffffffff1680630759f90d146100a95780630c737add146100cc5780631209b1f6146100f95780631a695230146101225780632f54bf6e1461015b5780634f8632ba146101ac578063832880e7146102015780638da5cb5b14610256578063a2522b4d146102ab578063fc3b3bd9146102e4575b600080fd5b34156100b457600080fd5b6100ca60048080359060200190919050506102f9565b005b34156100d757600080fd5b6100df6103e2565b604051808215151515815260200191505060405180910390f35b341561010457600080fd5b61010c6103f5565b6040518082815260200191505060405180910390f35b341561012d57600080fd5b610159600480803573ffffffffffffffffffffffffffffffffffffffff169060200190919050506103fb565b005b341561016657600080fd5b610192600480803573ffffffffffffffffffffffffffffffffffffffff16906020019091905050610488565b604051808215151515815260200191505060405180910390f35b34156101b757600080fd5b6101bf6104e1565b604051808273ffffffffffffffffffffffffffffffffffffffff1673ffffffffffffffffffffffffffffffffffffffff16815260200191505060405180910390f35b341561020c57600080fd5b610214610507565b604051808273ffffffffffffffffffffffffffffffffffffffff1673ffffffffffffffffffffffffffffffffffffffff16815260200191505060405180910390f35b341561026157600080fd5b610269610523565b604051808273ffffffffffffffffffffffffffffffffffffffff1673ffffffffffffffffffffffffffffffffffffffff16815260200191505060405180910390f35b34156102b657600080fd5b6102e2600480803573ffffffffffffffffffffffffffffffffffffffff16906020019091905050610548565b005b34156102ef57600080fd5b6102f76105f8565b005b600a60019054906101000a900460ff161561031f576000600b819055506001600c819055505b600854620151804281151561033057fe5b041115610353576001600a60006101000a81548160ff0219169083151502179055505b600a60009054906101000a900460ff1615610372576005546007819055505b806007541415156103a0576007548103600b54028160075403600c5402016006600082825401925050819055505b600a60009054906101000a900460ff1615156103be57806007819055505b60095462015180428115156103cf57fe5b0414156103df576103de610a2a565b5b50565b600a60019054906101000a900460ff1681565b60055481565b61040433610488565b151561040f57600080fd5b3073ffffffffffffffffffffffffffffffffffffffff168173ffffffffffffffffffffffffffffffffffffffff1614151561048557806000806101000a81548173ffffffffffffffffffffffffffffffffffffffff021916908373ffffffffffffffffffffffffffffffffffffffff1602179055505b50565b60008060009054906101000a900473ffffffffffffffffffffffffffffffffffffffff1673ffffffffffffffffffffffffffffffffffffffff168273ffffffffffffffffffffffffffffffffffffffff16149050919050565b600160009054906101000a900473ffffffffffffffffffffffffffffffffffffffff1681565b600061051233610488565b151561051d57600080fd5b80905090565b6000809054906101000a900473ffffffffffffffffffffffffffffffffffffffff1681565b61055133610488565b151561055c57600080fd5b600160009054906101000a900473ffffffffffffffffffffffffffffffffffffffff1673ffffffffffffffffffffffffffffffffffffffff168173ffffffffffffffffffffffffffffffffffffffff161415156105f55780600160006101000a81548173ffffffffffffffffffffffffffffffffffffffff021916908373ffffffffffffffffffffffffffffffffffffffff1602179055505b50565b600160009054906101000a900473ffffffffffffffffffffffffffffffffffffffff1673ffffffffffffffffffffffffffffffffffffffff163373ffffffffffffffffffffffffffffffffffffffff1614151561065457600080fd5b600a60009054906101000a900460ff1615151561067057600080fd5b600a60019054906101000a900460ff16156108ac57600360009054906101000a900473ffffffffffffffffffffffffffffffffffffffff1673ffffffffffffffffffffffffffffffffffffffff166329df13c1600360009054906101000a900473ffffffffffffffffffffffffffffffffffffffff1673ffffffffffffffffffffffffffffffffffffffff1663e38d6b5c6000604051602001526040518163ffffffff167c0100000000000000000000000000000000000000000000000000000000028152600401602060405180830381600087803b151561075157600080fd5b6102c65a03f1151561076257600080fd5b50505060405180519050600360009054906101000a900473ffffffffffffffffffffffffffffffffffffffff1673ffffffffffffffffffffffffffffffffffffffff16639d0369ae6000604051602001526040518163ffffffff167c0100000000000000000000000000000000000000000000000000000000028152600401602060405180830381600087803b15156107fa57600080fd5b6102c65a03f1151561080b57600080fd5b50505060405180519050600a60019054906101000a900460ff16156004546040518563ffffffff167c01000000000000000000000000000000000000000000000000000000000281526004018085815260200184815260200183151515158152602001828152602001945050505050600060405180830381600087803b151561089357600080fd5b6102c65a03f115156108a457600080fd5b505050610a28565b600360009054906101000a900473ffffffffffffffffffffffffffffffffffffffff1673ffffffffffffffffffffffffffffffffffffffff166329df13c16000600360009054906101000a900473ffffffffffffffffffffffffffffffffffffffff1673ffffffffffffffffffffffffffffffffffffffff16639d0369ae6000604051602001526040518163ffffffff167c0100000000000000000000000000000000000000000000000000000000028152600401602060405180830381600087803b151561097a57600080fd5b6102c65a03f1151561098b57600080fd5b50505060405180519050600a60019054906101000a900460ff16156004546040518563ffffffff167c01000000000000000000000000000000000000000000000000000000000281526004018085815260200184815260200183151515158152602001828152602001945050505050600060405180830381600087803b1515610a1357600080fd5b6102c65a03f11515610a2457600080fd5b5050505b565b600260009054906101000a900473ffffffffffffffffffffffffffffffffffffffff1673ffffffffffffffffffffffffffffffffffffffff1663a9059cbb600360009054906101000a900473ffffffffffffffffffffffffffffffffffffffff16600260009054906101000a900473ffffffffffffffffffffffffffffffffffffffff1673ffffffffffffffffffffffffffffffffffffffff166370a08231306000604051602001526040518263ffffffff167c0100000000000000000000000000000000000000000000000000000000028152600401808273ffffffffffffffffffffffffffffffffffffffff1673ffffffffffffffffffffffffffffffffffffffff168152602001915050602060405180830381600087803b1515610b5057600080fd5b6102c65a03f11515610b6157600080fd5b505050604051805190506000604051602001526040518363ffffffff167c0100000000000000000000000000000000000000000000000000000000028152600401808373ffffffffffffffffffffffffffffffffffffffff1673ffffffffffffffffffffffffffffffffffffffff16815260200182815260200192505050602060405180830381600087803b1515610bf857600080fd5b6102c65a03f11515610c0957600080fd5b5050506040518051905050600260009054906101000a900473ffffffffffffffffffffffffffffffffffffffff1673ffffffffffffffffffffffffffffffffffffffff166323b872dd600360009054906101000a900473ffffffffffffffffffffffffffffffffffffffff16600160009054906101000a900473ffffffffffffffffffffffffffffffffffffffff16600360009054906101000a900473ffffffffffffffffffffffffffffffffffffffff1673ffffffffffffffffffffffffffffffffffffffff16639d0369ae6000604051602001526040518163ffffffff167c0100000000000000000000000000000000000000000000000000000000028152600401602060405180830381600087803b1515610d2657600080fd5b6102c65a03f11515610d3757600080fd5b50505060405180519050600654026000604051602001526040518463ffffffff167c0100000000000000000000000000000000000000000000000000000000028152600401808473ffffffffffffffffffffffffffffffffffffffff1673ffffffffffffffffffffffffffffffffffffffff1681526020018373ffffffffffffffffffffffffffffffffffffffff1673ffffffffffffffffffffffffffffffffffffffff1681526020018281526020019350505050602060405180830381600087803b1515610e0557600080fd5b6102c65a03f11515610e1657600080fd5b5050506040518051905050600360009054906101000a900473ffffffffffffffffffffffffffffffffffffffff1673ffffffffffffffffffffffffffffffffffffffff16ff00a165627a7a723058206f4e08fa67b61bdc90efc946917822ad6700dddd7cab2b65c2394e65f6a4abff0029",
  "source": "pragma solidity ^0.4.8;\n\nimport \"./OneUserOneOwner.sol\";\nimport \"./MyToken.sol\";\nimport \"./market.sol\";\n\ncontract Ticket is OneUserOneOwner {\n    // Data struct\n\n    // Variables\n    MyToken token;\n    Market mkt;\n    uint ID;\n    uint public ticketPrice;\n    uint ticketBalance;             // Balance for updating profit and loss\n    uint priceReference;            // Reference to compare with when updating the balance\n    uint threshold;                 // Threshold between negotiation and delivery periods\n    uint finishDate;                // Last day of the delivery period\n    bool period;                    // Period: 0 = negotiation, 1 = delivery\n    bool public ticketType;\n    uint buy = 1; uint sell = 0;    // Defaulting to buy\n\n    // Events\n\n    // Modifiers\n\n    // Constructor\n    function Ticket (\n        uint _ticketID,\n        address _marketAddress,     // Address of the market. Since there is one market for each product,\n                                    // the address of the market contains the information of the product\n        address _tokenAddress,      // Address of the Token we are trading with\n        address _agentAddress,      // Address of the owner of the ticket\n        uint _price,                // Trading price (tokens per MWh)\n        bool _type                  // Type of the ticket: 0 = buying; 1 = selling\n        ) public {\n        require (msg.sender == _marketAddress);  // Only the associated market contract can print tickets\n        ID = _ticketID;\n        token = MyToken(_tokenAddress);\n        mkt = Market(_marketAddress);\n        user = _agentAddress;\n        threshold = mkt.deliveryDate();\n        finishDate = threshold + mkt.contractMaturity();\n        ticketPrice = _price;\n        priceReference = ticketPrice;\n        ticketBalance = token.balanceOf(this);  // Initialize the ticket balance\n        ticketBalance /= mkt.tickVolume();      // Correct the balance if tick volume is greater than 1\n        ticketType = _type;\n    }\n\n    // Functions\n    function updateTicketBalance (uint _energyPrice) public {\n        //require (msg.sender == oracle);                   // Oracle must send the price signal\n        if (ticketType) { buy = 0; sell = 1;}               // Correct the variables if selling ticket\n        if ((now / 1 days) > threshold) { period = true; }  // Update the period when now (days) reaches the threshold\n        if (period) { priceReference = ticketPrice; }\n        // Update the ticket balance if necessary\n        if (priceReference != _energyPrice)\n        ticketBalance += sell * (priceReference - _energyPrice) + buy * (_energyPrice - priceReference);\n        if (!period) { priceReference = _energyPrice; }\n        if ((now / 1 days) == finishDate) { closeTicket(); }\n    }\n\n    function closeTicket () internal {\n        token.transfer(mkt, token.balanceOf(this));\n        token.transferFrom(mkt, user, ticketBalance * mkt.tickVolume());\n        selfdestruct(mkt);    // Destroy this contract\n    }\n\n    function sellTicket () public onlyUser {\n        require (!period);    // Ticket can only be sold in the negotiation period\n        // Place an offer with type = !ticketType\n        if (ticketType) {\n            mkt.launchOffer(mkt.maxPrice(), mkt.tickVolume(), !ticketType, ID);\n        } else {\n            mkt.launchOffer(0, mkt.tickVolume(), !ticketType, ID);\n        }\n    }\n\n}\n",
  "sourcePath": "/home/inigo/projects/Blockchain/contracts/ticket.sol",
  "compiler": {
    "name": "solc",
    "version": "0.4.18+commit.9cf6e910.Emscripten.clang"
  },
  "schemaVersion": "1.0.1",
  "updatedAt": "2018-03-05T09:32:27.760Z"
}